:020000040800F2
:1000000050E7002061020008C7680008115300088B
:10001000C568000827130008F798000800000000D2
:10002000000000000000000000000000A101000826
:100030004916000800000000FD010008577600087E
:100040007B0200087B0200087B0200087B0200089C
:100050007B0200087B0200084B1600087B020008A8
:100060007B02000851160008571600087B020008A2
:100070007B0200087B0200087B0200087B0200086C
:100080007B0200087B0200087B0200087B0200085C
:10009000291300087B0200087B0200085D16000897
:1000A0007B0200087B0200087B0200087B0200083C
:1000B0007B0200087B0200087B0200087B0200082C
:1000C0007B0200087B0200087B0200087B0200081C
:1000D0007B020008757D00087B020008097E00088D
:1000E0007B0200087B0200087B0200087B020008FC
:1000F0007B0200087B0200087B02000885140008D0
:100100007B0200087B0200087B0200087B020008DB
:100110007B0200087B0200087B0200087B020008CB
:100120007B020008DD140008E91400087B020008C7
:100130007B0200087B0200087B0200087B020008AB
:10014000351300087B0200087B020008656C00087C
:100150007B0200088D15000899150008E97E00084B
:100160007B0200087B0200087B0200087B0200087B
:100170007B0200087B0200087B02000800000000F0
:100180007B0200087B020008DFF810D000F026FC9C
:1001900000480047FFE10008AFF3008050E700206F
:1001A0002C4B19680868B0E8F04F80F30988BFF35A
:1001B0006F8F4FF0000080F311887047000000003F
:1001C00008480068006880F308884FF0000080F35A
:1001D000148862B661B6BFF34F8FBFF36F8F00DF35
:1001E00000BF00BF08ED00E0DFF80C00016841F43B
:1001F00070010160704700BF88ED00E0EFF30980F7
:10020000BFF36F8F134B1A681EF0100F08BF20ED5D
:10021000108A20E9F04F106009B44FF0500080F3CD
:100220001188BFF34F8FBFF36F8F10F0AFF84FF00F
:10023000000080F3118809BC19680868B0E8F04F25
:100240001EF0100F08BFB0EC108A80F30988BFF3CE
:100250006F8F7047AC000020EFF3058070470000FF
:100260000648804706480047FEE7FEE7FEE7FEE750
:10027000FEE7FEE7FEE7FEE7FEE7FEE71977000888
:10028000890100089FED1A1AF5EE000A40EE010AF6
:10029000BDEEE00AF5EEC00A10EE100AF1EE10FA1B
:1002A00038BF401E00EE100A1349F7EE001AB8EEF0
:1002B000C00A30EEC00ADFED0F0A20EE200AFCEE85
:1002C000C00A10EE900AC0F3080000EE900A01EB9D
:1002D0008000F8EE600A90ED011A70EE600A90ED71
:1002E000000A71EEE01A21EE800A00EE810A7047E2
:1002F00083F9223E00000044C01D0108DFED190A09
:10030000B5EEC00A60EE200ABDEEE01A11EE100A4A
:10031000F1EE10FA38BF401E00EE100A1349F7EE56
:10032000001AB8EEC00A30EEC00ADFED0F0A60EE28
:10033000200ABCEEE00A10EE100AC0F3080000EE3E
:10034000100A01EB8000B8EE400A90ED011A70EE41
:10035000C00A90ED000A71EEE01A21EE800A00EE6C
:10036000810A704783F9223E00000044C01D010845
:100370002DE9F05F0546002092469B4688460646DA
:10038000814640241BE0284641464746224600F06D
:10039000E8F953465A46C01A914110D311461846FF
:1003A000224600F0CFF92D1A67EB01084F4622468E
:1003B0000120002100F0C6F917EB00094E41201E74
:1003C000A4F10104DFDC484631462A464346BDE835
:1003D000F09F40EA01039B0703D009E008C9121F00
:1003E00008C0042AFAD203E011F8013B00F8013BEF
:1003F000521EF9D27047D2B201E000F8012B491E1B
:10040000FBD270470022F6E710B513460A460446B1
:100410001946FFF7F0FF204610BD421C10F8011BE3
:100420000029FBD1801A70472DE9FE4F804681EAF2
:100430000300C00F0C46009021F0004123F000455E
:10044000B8EB0200A94105D24046214690461C4621
:100450000B46024623F00040104347D0270DC7F358
:100460000A00C3F30A510290401A019040286BDA47
:10047000C3F3130040F4801B0098924620B1002380
:10048000D2EB030A63EB0B0B01985946C0F1400213
:10049000504600F057F906460D4650465946019A17
:1004A00000F06FF910EB08006141002487EA115257
:1004B00084EAE7731A4340D0009A62B3019A012A92
:1004C0004FEA075215DC001B61EB02014FF00042BE
:1004D00002EA0752CDE90042001C41F58011324684
:1004E0002B4600F0A6F903B0BDE8F08F4046214648
:1004F000F9E7001B61EB0201001C41F580130018B5
:100500005B412018A2F5001747EB030140EAD570C4
:10051000B6196D4111E06D084FEA360645EAC0751F
:100520004FEA0752001B61EB0201001C41F58011EC
:1005300049084FEA30000019514132462B4603B0BA
:10054000BDE8F04F00F066B900980122400000239A
:10055000D0EB020263EBE073009821464FEAE074AF
:10056000B8EB000061EB0401E9E783F000435BE7CF
:1005700081F0004158E72DE9FE4F81EA030404F0C1
:10058000004421F0004100944FF0000B23F00043A1
:1005900050EA01045ED052EA03045BD0C3F30A546C
:1005A000C1F30A552C44A4F2F3340194A0FB025485
:1005B000C1F3130141F48011C3F3130343F4801317
:1005C00001FB024400FB034E840A970A44EA81546B
:1005D00047EA8357A4FB076802958D0A05FB078548
:1005E0004FEA932C04FB0C542705029D4FEA065852
:1005F00047EA1637B5EB08056EEB070C870E920E2F
:1006000047EA811742EA8312A7FB0201B6EB0B010E
:1006100064EB00042B0D43EA0C335E1844EB1C50D2
:10062000DA465146E7FB0201C5F313044FEA0B33E8
:1006300043EA14534FEA0432019C43EA0603A4F14F
:100640000C040294009CCDE900B400F0F2F803B071
:10065000BDE8F08F00200146F9E700F0004230F0DD
:1006600000400AD0C10D01F56071C0F3160042EAE6
:100670000151C208400711437047002001467047EE
:1006800030B5041E71F1000404DB4FF00044404219
:1006900064EB0101141E73F1000405DB1C464FF0EE
:1006A0000043524263EB04038B4208BF824230BDD9
:1006B00030B5041E71F1000404DB4FF000444042E9
:1006C00064EB0101141E73F1000405DB1C464FF0BE
:1006D0000043524263EB0403994208BF904230BD8D
:1006E00001F0004330B421F0004150EA010206D08D
:1006F0000A0DA2F56072C1F31301002A02DC30BCBE
:1007000000207047440F44EAC104C100E01830BC27
:1007100000EBC25000F047B830B50B460146002050
:100720002022012409E021FA02F59D4205D303FAB3
:1007300002F5491B04FA02F52844151EA2F1010234
:10074000F1DC30BD202A04DB203A00FA02F100205F
:1007500070479140C2F1200320FA03F319439040FF
:100760007047202A04DB203A21FA02F0002170476A
:1007700021FA02F3D040C2F1200291400843194609
:100780007047202A06DBCB17203A41FA02F043EAF1
:10079000E07306E041FA02F3D040C2F1200291403A
:1007A0000843194670470029A8BF7047401C4900FC
:1007B00008BF20F00100704710B4B0FA80FC00FAC6
:1007C0000CF050EA010404BF10BC704749B1CCF1F1
:1007D000200421FA04F411FA0CF118BF012121437D
:1007E0000843A3EB0C01CB1D4FEA00614FEA102038
:1007F00042BF002010BC704700EBC35010440029DA
:10080000A4BF10BC7047401C490008BF20F0010085
:1008100010BC704710B5141E73F1000408DA401CB8
:1008200041F1000192185B411A4301D120F001000F
:1008300010BD2DE9F04D92469B4611B1B1FA81F2FF
:1008400002E0B0FA80F220329046FFF77BFF0446C8
:100850000F4640EA0A0041EA0B0153465A46084354
:1008600013D0114653EA010019D0C8F14002504696
:10087000FFF777FF05460E46504659464246FFF7BA
:1008800061FF084305D0012004E020463946BDE859
:10089000F08D0020054346EAE0762C4337430A9862
:1008A0006305E40AA0EB08000022FD0A44EA47546D
:1008B0000A3002D500200146E9E701051019694117
:1008C000DDE9084500196941BDE8F04DA2E72DE9D1
:1008D000F04D81EA030404F0004B21F0004514467A
:1008E0004FF0000A23F0004150EA050220D054EAFC
:1008F00001021DD0C5F30A570246C5F31303C1F325
:100900001300C1F30A5640F4801543F48013A7EB9B
:100910000608101BD64608F2FD3873EB050002D31B
:1009200008F1010801E092185B41B8F1000F03DA09
:1009300000200146BDE8F08D00204FF480110646EE
:1009400084460EE0171B73EB050705D3121B63EB00
:10095000050306434CEA010C49084FEA300092189F
:100960005B4150EA0107EDD152EA030012D082EA5E
:10097000040083EA0501084305D0101BAB4106D2F1
:100980000122002306E000224FF0004302E06FF056
:10099000010253101AEB06004CEB085110EB0A0051
:1009A00041EB0B01BDE8F04DFFF734BFC1F30A5234
:1009B000C1F3130140F2FF3341F480119A4202DA8D
:1009C00000200146704740F233439A42A2F233427C
:1009D00002DC5242FFF7C5BEFFF7B4BE064C074D1E
:1009E00006E0E06840F0010394E8070098471034FF
:1009F000AC42F6D3FFF7CCFB54270108742701085B
:100A000070B58C1810F8015B15F0070301D110F8D0
:100A1000013B2A1106D110F8012B03E010F8016BFD
:100A200001F8016B5B1EF9D12B0705D40023521E80
:100A30000DD401F8013BFAE710F8013BCB1A921CE8
:100A400003E013F8015B01F8015B521EF9D5A142E6
:100A5000D8D3002070BD00004A494A6822F44032D1
:100A60004A604A6843681A434A6001684A6822F447
:100A700080724A6001684A68036942EA03224A6058
:100A800001684A6822F040724A6001684A688368D7
:100A90001A434A6001688A6822F400628A60016829
:100AA0008A68C3681A438A60816A6FF07062D142B3
:100AB00014D001688A6822F070628A6001688A68CE
:100AC000836A1A438A6001688A6822F040528A6009
:100AD00001688A68C36A1A438A6009E001688A6803
:100AE00022F070628A6001688A6822F040528A604F
:100AF00001688A6822F002028A6001688A68037EBF
:100B000042EA43028A6090F8201089B101684A687D
:100B100042F400624A6001684A6822F460424A6016
:100B200001684B68426A521E43EA42324A6004E05E
:100B300001684A6822F400624A600168CA6A22F4C5
:100B40007002CA620168CB6A828B521E43EA02526B
:100B5000CA6201688A6822F400728A6001688A6841
:100B600090F8303042EA43228A6001688A6822F4B1
:100B700080628A6001688A68406942EA80208860F1
:100B8000704700000023014008F0ECBE08F080BF71
:100B9000FFF778BBF0EE400AF5EEC00AF1EE10FA6E
:100BA00002DDB0EE600A7047B1EE600AFBE70000BC
:100BB000002803D09FED020A80ED000A7047000074
:100BC00000000000002803D0B3EE060A80ED000A02
:100BD0007047000070B52DED0C8B84B006460C46B6
:100BE00015469FED990AF0EE408A9FED970AB0EE08
:100BF000409A9FED950AF0EE40BA9FED930AF0EE11
:100C0000409A9FED910AB0EE40AA0EB104B11DB911
:100C100004B0BDEC0C8B70BD8C48FFF7C9FF8C484D
:100C2000FFF7D0FF8A48D0ED000A9FED8A1A60EEE8
:100C3000810AB0EE600A00F025F9F0EE408A28EE55
:100C4000A80AF0EE408A8248D0ED000AB0EE001A01
:100C500060EE810A9FED7F1A60EE810AB0EE600AB5
:100C600000F010F9B0EE409A29EE090AB0EE409A71
:100C7000DFED790AB7EE000A00EEA80ADFED770A89
:100C800000EEC90ADFED760A20EE200A754880EDF5
:100C9000000A6E4890ED000ADFED730A80EE201A1C
:100CA000B7EE000A31EE000A20EE000A6D48D0EDE2
:100CB000000A80EE801A6D4880ED001A94ED000A5B
:100CC000B5EEC00AF1EE10FA0DD194ED010AB5EEC1
:100CD000C00AF1EE10FA06D194ED020AB5EEC00A90
:100CE000F1EE10FA46D09FED580AB0EE408A00208F
:100CF000019002900390D4ED000A60EEA00A94EDFA
:100D0000011AD4ED011A41EE210A94ED021AD4ED34
:100D1000021A41EE210AB0EE600A00F0A9F8B0EE26
:100D2000408A94ED000A20EE080A8DED010A94ED48
:100D3000010A20EE080A8DED020A94ED020A20EE67
:100D4000080A8DED030ADDED010AF1EE600AB0EE4E
:100D5000600AFFF719FFF0EE409A9DED031AF0EEDE
:100D6000410A9DED021AB0EE410AFFF70FFFB0EE07
:100D700040AA07E09FED340AF0EE409A9FED320A58
:100D8000B0EE40AA95ED000AB5EEC00AF1EE10FAF9
:100D90000DD195ED010AB5EEC00AF1EE10FA06D1BB
:100DA00095ED020AB5EEC00AF1EE10FA3CD0B0EEB5
:100DB000690A00F067F8B0EE408AB0EE690AFFF702
:100DC000E7FEB0EE40DAB0EE4A0A00F05BF8F0EE73
:100DD00040AAB0EE4A0AFFF7DBFEB0EE40BA28EEBA
:100DE0002A0AD5ED010A20EE200AD5ED000A0DEE03
:100DF000200A68EE0B0A95ED021A00EE810AB0EEA9
:100E000040CA95ED010A20EE0B0AD5ED020A0AEE62
:100E1000E00AF0EE40CAF0EE6C0AB0EE4C0AFFF7C2
:100E2000B5FEF0EE40BA03E09FED070AF0EE40BADF
:100E3000B0EE4A1AF0EE690AB0EE6B0A304609F0DD
:100E400019FE00BFE4E60000000000008804002056
:100E50008C04002035FA8E3CC1BFAD3B9DF8C536F1
:100E60002F7C1C4190040020506CC24A9404002046
:100E700010B508F06DFFB7EE001AC1EE000AB0EE33
:100E8000600A10BDFFF73ABA2DE9F0412DED028B53
:100E90009AB00546B0EE408A0E46174698460020A6
:100EA0001790189019901490159016904DB146B166
:100EB0003FB1B8F1000F04D0B5EEC08AF1EE10FAE0
:100EC00005D100201AB0BDEC028BBDE8F08196ED93
:100ED000000A8DED170A96ED010A8DED180A96EDC0
:100EE000020A8DED190A97ED000A8DED140A97EDAF
:100EF000010A8DED150A97ED020A8DED160A17AA63
:100F000014A9284609F0EAFB402104A8FFF77AFA61
:100F100000200090019002900390002417A904A8DB
:100F20000EF060FE00BF30E004A800EB041090ED6E
:100F3000000AD5ED000A20EE200A04A800EB0410F8
:100F4000D0ED010A95ED011A00EE810A04A800EB2C
:100F50000410D0ED020A95ED021A00EE810A04A8F1
:100F600000EB0410D0ED030A95ED031A00EE810AA0
:100F700020EE080AF0EE000A80EE201A684600EB28
:100F8000840080ED001A601CC4B2042CCCDB002469
:100F900010E005EB840090ED000A684600EB840049
:100FA000D0ED000A30EE200A05EB840080ED000A47
:100FB000601CC4B2042CECDB28460DF0ABFF012012
:100FC00080E7000001221021014801F00ABE000064
:100FD0000000024000221021014801F002BE000082
:100FE000000002407047000001221146014801F054
:100FF000F8BD00000004024000220121014801F078
:10100000F0BD00000004024030B5437804781B02B4
:101010001BB2234300EE103A1B4CB8EEC00AD4EDCD
:10102000000A20EE200A81ED000AC37885781B02B1
:101030001BB22B4300EE103AF8EEC00A94ED000A02
:1010400060EE800AC1ED010A437904791B021BB2EC
:10105000234300EE903AF8EEE00A20EE800A81ED9C
:10106000020A017AC3790904807941EA0321014324
:1010700000EE101ADFED050AB8EE400A20EE200A55
:1010800082ED000A30BD00005804002000401C42E0
:1010900070470DF047BA0BF0CDBA000010B542789A
:1010A0000378120212B21A4300EE102A124BB8EE65
:1010B000C00AD3ED010A20EE200A81ED000AC278B1
:1010C0008478120212B2224300EE102AF8EEC00A0F
:1010D00093ED010A60EE800AC1ED010A42790079C0
:1010E000120212B2024300EE902AF8EEE00A20EE5D
:1010F000800A81ED020A10BD5804002010B5FFF7E8
:1011000071FFFFF7C5FF09F047FE08B1802402E038
:1011100009F0B4FD04460AF005F810B144F04000AF
:1011200010BD09F091FF204310BD00002DE9FC41E6
:1011300004460D461646002000900190FFF74AFF36
:10114000922000F0BFF806226946122000F09CF8B9
:10115000FFF738FF9DF801009DF80010000200B273
:10116000084300EE100A474FB8EEC00AD7ED000A58
:1011700020EE200A85ED000A9DF803009DF802107C
:10118000000200B2084300EE100AF8EEC00A97ED24
:10119000000A60EE800AC5ED010A9DF805009DF881
:1011A0000410000200B2084300EE900AF8EEE00AD4
:1011B00020EE800A85ED020AFFF71EFF082269462D
:1011C000002000F061F8FFF70FFF9DF800000F28E6
:1011D00030D19DF803009DF80210000200B20843D0
:1011E00000EE100AD7ED010AB8EEC00A20EE200A80
:1011F00084ED000A9DF805009DF80410000200B27D
:10120000084300EE100AF8EEC00A97ED010A60EEFE
:10121000800AC4ED010A9DF807009DF8061000023F
:1012200000B2084300EE900AF8EEE00A20EE800AD1
:1012300084ED020AFFF7CEFEA22000F043F802225E
:101240006946222000F020F8FFF7BCFE9DF8000060
:101250009DF80110C00040EA5110B0F5806F02DB2C
:10126000A0F5006000B200EE100AB4EE001AF8EE2D
:10127000C00AB3EE070A00EE810A86ED000ABDE857
:10128000FC8100005804002070B50D46144640F063
:10129000800000F017F806E0552000F013F805F87C
:1012A000010B641EE4B2002CF6D170BD10B50C46E3
:1012B00040F0800000F006F8552000F003F82070A0
:1012C00010BD000001B582B04FF47A700090012388
:1012D00001AA02A9024803F0B5FA9DF804000EBD68
:1012E000B80D002002784078D20042EA5010B0F5E4
:1012F000806F02DBA0F5006000B200EE100AB4EED1
:10130000001AF8EEC00AB3EE070A00EE810A81ED7A
:10131000000A704710B50C46FFF7D4FF2046BDE821
:101320001040FFF7CFBFFEE7014800F046BE0000C7
:1013300034050020014800F040BE00005C0500209C
:1013400038B50E4C4FF4007525600025A560E560AA
:10135000082525610A4C050A25706070080AA070EE
:10136000E170100A20716271180AA071E3716B4676
:1013700022460249034800F09BFC38BD748F0020D0
:10138000B50200203405002008B50C494FF4E06098
:10139000086000208860C86008220A610849087057
:1013A00048708870C870087148718871C8710A46A1
:1013B0006B460249034800F07BFC08BD748F002097
:1013C000B50200203405002038B50E4C40F2FF1560
:1013D00025600025A560E560082525610A4C050A01
:1013E00025706070080AA070E170100A20716271A7
:1013F000180AA071E3716B4622460249034800F0C7
:1014000057FC38BD5C8F0020AD0200203405002061
:1014100004284FF0000070470020704710B50022EC
:101420000449054806F0CEFE0449034806F0C4FE10
:10143000002010BD8C230020E81200208C1B00200F
:1014400010B50146034806F0B7FE024806F093FEC9
:10145000002010BDE812002010B50A460849D1F856
:101460009012D1F81412002901D0012010BD0146BC
:10147000034806F0A7FEBDE81040014806F01CBF77
:10148000E812002010B5124A506800011FD5114B18
:10149000114C4FF00061586B0068A04203D90E4810
:1014A0004C3801600EE00A4CB834A04203D90A4817
:1014B0005038016006E0064C5834A04201D9D16092
:1014C00000E091601868016841F40071016010BD8E
:1014D00000600240800C002058640240014801F086
:1014E0002DB800002812002070B523480068800243
:1014F00040D521494FF0F460083108601F4C207836
:1015000080070CD5207820F002002070207840F071
:101510000400207001221146194801F062FB607836
:10152000184D80070CD5607820F00200607060785C
:1015300040F00400607001221021284601F051FBA8
:10154000A07880070CD5A07820F00200A070A078C9
:1015500040F00400A07001221021284601F041FB58
:101560000CF0E2FB2078400704D50748016841F001
:101570000101016070BD0000006402400C03002006
:101580000004024000000240103C0140014800F00D
:10159000D5BF000088120020014800F0CFBF000036
:1015A000681100200168CAB2103A1823B2FBF3F2A6
:1015B000064B9B5CC3656FF30901032A02D9091D21
:1015C000816500E08165806D70470000A41001080E
:1015D00010B5014600208A6A8B694FF0C074002B59
:1015E0000ED0B3F5005F1AD062B3012A2AD0022AC6
:1015F00028D0032A03D1C96AC90100D5012010BD32
:101600001AB1012A06D0022AF9D1C96AC901F6D550
:10161000012010BDC96AA142FBD1012010BD52B109
:10162000012A0AD0022A06D0032AF7D1C96AA142A8
:10163000F4D1012010BD012010BDC96AC901FBD53C
:10164000012010BD012010BD7047012001F0D4B968
:10165000082001F0D1B9102001F0CEB9202001F00E
:10166000CBB970470022002905D001291AD00229E0
:101670001BD04FF440720E490B6823F440730B608B
:101680000B6813430B600A6822F0F8020A600A68CC
:10169000022303EBC00002430A60086840F4803074
:1016A000086070474FF48072E5E74FF40072E2E79C
:1016B000103C02401348016889050FD5016821F4E8
:1016C00000710160016841F400610160016821F46A
:1016D00000610160016841F4007101600168490521
:1016E0000FD5016821F480610160016841F48051E7
:1016F0000160016821F480510160016841F480615A
:1017000001607047003C024008490A6822F44072B8
:101710000A600A6842F004020A600A684FF48033E3
:1017200043EA002002430A6070470000103C024078
:10173000064A136823F44073136013681360136838
:1017400043F001031360017070470000103C024039
:1017500010B508490C6824F440740C600C6844F41B
:1017600040740C600C6844F001040C60026043603B
:1017700010BD0000103C0240074A136823F4407378
:101780001360136843F480731360136843F001031C
:101790001360018070470000103C0240074A136844
:1017A00023F440731360136843F4007313601368E9
:1017B00043F001031360016070470000103C0240D9
:1017C00017490868C206174805D5C26942F01002D9
:1017D000C26110220A600A68920605D5C26942F009
:1017E0000802C26120220A600A68520605D5C26951
:1017F00042F00402C26140220A600A68120605D55E
:10180000C26942F00202C26180220A600A6892073D
:1018100005D5C26942F02002C2610220086070470B
:101820000C3C02408C2B002070B50446114900206E
:10183000C86101F0DDF905460F4E09E0601C07D0D4
:1018400024B101F0D5F9401BA04201D9032070BD9D
:101850003068C003F2D43068C00701D00120306086
:10186000306810F0F20F03D0FFF7AAFF012070BD1F
:10187000002070BD8C2B00200C3C024010B50B48A2
:101880000168001D0468001D0068084400280BD092
:101890000822074904F008FA054920460422BDE859
:1018A0001040103104F000BA10BD0000107AFF1F84
:1018B0007200002078B50024009490F83C20012AA2
:1018C00019D0012280F83C200A680725092A14D97A
:1018D0000368DE680A3A02EB42029540AE43DE60DE
:1018E0000A788B680A3A02EB420293400268D56894
:1018F0002B43D36011E0022078BD03681E6902EB20
:1019000042029540AE431E610A788B6802EB4202A8
:101910009340026815692B4313614A681F25072A03
:1019200013D203685E6B521E02EB82029540AE43F7
:101930005E630A8893B20A79521E02EB82029340D8
:101940000268556B2B43536328E00D2A13D20368BA
:101950001E6BD21F02EB82029540AE431E630A88C3
:1019600093B20A79D21F02EB820293400268156B90
:101970002B43136312E00368DE6A0D3A02EB820226
:101980009540AE43DE620A8893B20A790D3A02EBC3
:10199000820293400268D56A2B43D362174A184BE0
:1019A00005689D4206D10D68122D03D1556845F496
:1019B0008005556005689D421BD10B68102B01D036
:1019C000112B16D1536843F40003536009681029A2
:1019D0000FD10C490C4A0968B1FBF2F101EB81010E
:1019E0004900009102E00099491E009100990029E8
:1019F000F9D180F83C40002078BD00000023014070
:101A000000200140A800002040420F000068C06C88
:101A1000704770B504460026002C03D0206C0025CA
:101A200010B107E0012070BD204600F01DF865648C
:101A300084F83C50206CC00610D4206C20F48850F0
:101A400040F0020020642046FFF706F86564206C31
:101A500020F0020040F00100206400E0012684F83C
:101A60003C50304670BD000010B586B004461421CD
:101A700001A8FEF7C7FC174B2068002216499842C0
:101A800009D1086840F480700860086800F480702C
:101A9000009006B010BD114B9842FAD1086840F48E
:101AA00080600860086800F4806000900A4814387C
:101AB000016841F020010160006800F02000009002
:101AC0001815019003200290039201A9044800F028
:101AD0009FFFDEE700200140443802400022014021
:101AE000001402402DE9F04104460D46206881684B
:101AF0004FF0000749050BD58068C00508D5206C5C
:101B000040F02000206484F83C700120BDE8F081A2
:101B100001F06EF806460FE0681C0DD025B101F00B
:101B200067F8801BA84207D9206C40F004002064AD
:101B300084F83C700320E9E7206800688007EBD553
:101B400021686FF012000860206C40F4007020647F
:101B50002068816811F0405F13D1217E89B9C16A84
:101B600011F4700F02D0806840050AD4206C20F474
:101B700080702064206CC00403D4206C40F001000D
:101B800020640020C2E7000018B50022009290F8FF
:101B90003C10012907D0012180F83C1001688B68B6
:101BA000DB0702D014E0022018BD8B6843F001036C
:101BB0008B603049304B0968B1FBF3F101EB410117
:101BC000009102E00099491E009100990029F9D185
:101BD00001688B68DB074AD0036C40F20164A343C1
:101BE00043F4807303644B685B0505D5036C23F4F1
:101BF000005343F480530364036CDB0404D5436C4B
:101C000023F00603436400E0426480F83C201B4A52
:101C10006FF022030B605168CA06194907D00068AB
:101C2000884224D1816811F0405F1CD01FE0006819
:101C300088420FD0134A904203D1D1F80423D20630
:101C400008D0114A904212D1D1F8041301F01F01BB
:101C500010290CD2816811F0405F08D1816841F0F1
:101C60008041816003E0816841F080418160002013
:101C700018BD0000A800002040420F0000230140D2
:101C800000200140002101400022014090F8202066
:101C9000012A07D0022A05D0416A41F4802141621D
:101CA00001207047006842690A4342610020704782
:101CB000F0B590F820500468A468012D07D0022DDB
:101CC00005D0416A41F4802141620120F0BD04F059
:101CD000806504F00066354301D1E5005BD5C4F3AF
:101CE0000164022C05D9416A41F4000141620120DE
:101CF000F0BD0125A5401D608B684FF4C0759BB1F8
:101D0000CE6805EB041733434E6843EAC603066802
:101D1000F3514FF4C273076803EB04130E69FE50CE
:101D2000097D012909D00DE00E88CB6805EB041769
:101D300043EA46530668F351EBE70168CE5846F490
:101D40008076CE501179D379567941EA036193793F
:101D50001B0443EA062319434FF4C676036806EBD7
:101D6000041699511178D37841EA03619378527837
:101D70001B0443EA022211434FF4C473026803EBCD
:101D80000413D150006805EB0411425842F00102DF
:101D900042500020F0BD416A41F40011416201202F
:101DA000F0BD000010B590F82020012A07D0022ACB
:101DB00005D0416A41F480214162012010BD3C48B8
:101DC00000F50070026842F001020260026822F42D
:101DD0007C52026002684B6A42EA032202600A7D7A
:101DE00002F01F0301229A40C3699343C361A0F527
:101DF0000070CB69B3B9D0F80C329343C0F80C3201
:101E00008C894B6864F31F434C6900EBC404C4F82D
:101E100040320C890B6864F31F434C6900EBC40427
:101E2000C4F84432CB69012B16D1D0F80C321343DD
:101E3000C0F80C320C884B6864F31F434C6900EB0C
:101E4000C404C4F840320C89CB6864F31F434C6966
:101E500000EBC404C4F844328B697BB1D0F804327F
:101E60001343C0F804320B6973B1D0F81432134332
:101E7000C0F81432096A01290CD010E0D0F80432FD
:101E80009343C0F80432EEE7D0F814329343C0F81D
:101E90001432EFE7D0F81C121143C0F81C12D0F82E
:101EA000001221F00101C0F80012002010BD000056
:101EB00000640040704730B590F82040012C07D0F6
:101EC000022C05D0416A41F480214162012030BDDD
:101ED00021B104682469A4075ED003E00468E468C3
:101EE000A40753D04FF4D874056804EB01142D599E
:101EF00005F004059560002D54D005682D59ED08B6
:101F0000556005682C59C4F34004D4604FF4DA746A
:101F1000056804EB01142D5905F00F0515610568DE
:101F20002D59C5F30725956105682C59240C54617A
:101F30004FF4DC72046802EB0112A4581C700468B0
:101F4000A458240A5C700468A458240C9C7004688B
:101F5000A258120EDA704FF4DE72046802EB01121E
:101F6000A4581C710468A458240A5C710468A4581D
:101F7000240C9C710468A258120EDA71B9B1006881
:101F8000016941F020010161002030BD416A41F446
:101F900000114162012030BD416A41F400114162EB
:101FA000012030BD05682D596D0D1560A9E7006849
:101FB000C16841F02001C160E6E72DE9F05F054608
:101FC000002428684669D0F804908768D0F80CA0EF
:101FD000D0F810B0D0F81880F10748D0F90714D025
:101FE00001218160B80703D5284600F079FA0CE09A
:101FF000780702D54FF4006407E0380702D54FF4A4
:10200000805402E0284600F06AFAF80516D52968DF
:102010004FF480708860B80503D5284600F062FA56
:102020000CE0780502D544F4005407E0380502D5E9
:1020300044F4804402E0284600F053FAF80316D531
:1020400029684FF480308860B80303D5284600F033
:102050004BFA0CE0780302D544F4004407E038035F
:1020600002D544F4803402E0284600F03CFA300700
:1020700007D55FEACA6004D544F4007429681020CB
:10208000C86070074FF0080707D55FEA0A7004D5EB
:102090002868C760284600F0B7F9B00706D5286859
:1020A000C068800702D0284600F0B0F9700607D556
:1020B0005FEACB6004D544F480642968102008618D
:1020C000B00607D55FEA0B7004D52868076128467B
:1020D00000F0D6F9F00606D528680069800702D01E
:1020E000284600F0CEF9B00308D55FEAC96005D5EF
:1020F000296810204860284600F0C4F9F00307D58D
:102100005FEA097004D528684760284600F0EDF9B9
:10211000300446D55FEA497040D5F00504D55FEA42
:10212000C87001D044F00104B00504D55FEA88709E
:1021300001D544F00204700504D55FEA487001D56A
:1021400044F00404300529D518F0700F26D008F0AB
:102150007000402815D006DC102809D020280AD0AD
:10216000302816D10AE050280ED0602811D10EE098
:1021700044F008040DE044F010040AE044F02004A8
:1021800007E044F0400404E044F0800401E044F43B
:1021900080742868816921F07001816129680420B8
:1021A0004860002C05D0686A204368622846FFF723
:1021B00081FEBDE8F09F70B50446002C03D094F872
:1021C000200010B104E0012070BD204600F09CF812
:1021D0002068016821F00201016000F009FD054658
:1021E00005260CE000F004FD401B0A2807D9606AB0
:1021F00040F40030606284F82060012070BD2068E7
:1022000040688007EED42068016841F00101016058
:1022100000F0EEFC05460CE000F0EAFC401B0A284A
:1022200007D9606A40F40030606284F820600120C1
:1022300070BD20684068C007EED0207E01283FD0E6
:102240002068016821F080010160607E01283DD096
:102250002068016821F040010160A07E01283BD088
:102260002068016821F020010160E07E012839D05A
:102270002068016841F010010160207F012837D0FB
:102280002068016821F008010160607F012835D0D5
:102290002068016821F004010160D4E902010843CB
:1022A000D4E90412114308436168491E08432168B8
:1022B000C86100206062012084F82000002070BD09
:1022C0002068016841F080010160BEE72068016874
:1022D00041F040010160C0E72068016841F0200141
:1022E0000160C2E72068016821F010010160C4E7C5
:1022F0002068016841F008010160C6E720680168B4
:1023000041F004010160C8E72DE9F04186B00446C0
:10231000142101A8FEF776F8364B374ADFF8D08053
:1023200018682168344C03260227401C103200250F
:102330004FF0090C414527D11860012807D11068DA
:1023400040F000701060106800F00070009020688D
:1023500040F008002060206800F00800009001961E
:10236000029703950496CDF814C001A9234800F004
:102370004FFB00220621142001F0BEF8142001F0CA
:10238000ADF806B0BDE8F081DFF874804145F8D1C2
:10239000116841F080611160116801F08061009165
:1023A0001860012807D1106840F0007010601068B4
:1023B00000F000700090206840F00200206020686B
:1023C00000F00200009060200190029703950496AF
:1023D000CDF814C001A90B4800F01AFB0022062119
:1023E000402001F089F8402001F078F8C9E70000AA
:1023F000006400400000002030380240000C024021
:1024000000680040000402407047000030B589B009
:102410006B4602AA0021FFF74EFD0298A0F20120B0
:10242000062827D8C1B214480170144B01EB810271
:1024300003EB420033F8124004819DF801409DF8FF
:10244000005044EA052423F812409DF803209DF82B
:10245000023042EA032242809DF805209DF80430B4
:1024600042EA032282809DF806208271491CC8B28C
:102470000AF0FCF809B030BDAC020020148F002037
:1024800070477047704770B5044694F820000128E3
:1024900005D0606A40F400206062012070BD022017
:1024A00084F820002068016821F00101016000F03B
:1024B0009FFB05460DE000F09BFB401B0A2808D956
:1024C000606A40F400306062052084F8200001203A
:1024D00070BD20684068C007EDD1606270BD704774
:1024E00070477047704770477047704710B5044693
:1024F000002C02D0607910B106E0012010BD002050
:102500002071204600F006F8022060710120607101
:10251000002010BD08B500680649884208D1064869
:10252000016841F480510160006800F4805000901F
:1025300008BD000000300240303802402DE9F84369
:1025400004464FF00009CDF800906F484FF4165143
:102550000068B0FBF1F7A56D2E6894F85C000822C6
:1025600002FA00F1314210D02068016849070CD509
:10257000016821F00401016094F85C0002FA00F1A6
:10258000A960606D40F00100606594F85C104FF048
:10259000010808FA01F0304208D0216849690906AB
:1025A00004D5A860606D40F00200606594F85C108E
:1025B00004208840304208D021680968890704D582
:1025C000A860606D40F00400606594F85C10102015
:1025D0008840304220D02168096809071CD5A860CE
:1025E0002068016849030CD50068000304D4216CFD
:1025F00091B1204688470FE0A16C69B12046884719
:102600000AE00168C90503D4016821F008010160EE
:10261000216C09B12046884794F85C10202088403E
:1026200030424CD021680968C90648D5A86094F8A2
:10263000350005280BD020680168490330D50068B3
:10264000000328D4616C51B32046884737E02068E6
:10265000016821F0160101602068416921F08001C4
:102660004161206C08B9A06C20B12068016821F09C
:102670000801016094F85C103F208840A86084F84D
:10268000349084F83580216D00293BD001B020467C
:10269000BDE8F0430847E16B09B1204688470EE0EA
:1026A0000168C90507D4016821F01001016084F8B0
:1026B000349084F83580E16B09B120468847606D1D
:1026C00000281FD0606DC00714D0052084F83500A5
:1026D0002068016821F0010101600098401C009011
:1026E000B84203D820680068C007F6D184F8349057
:1026F00084F83580E16C002904D001B02046BDE8A3
:10270000F0430847BDE8F883A80000202DE9F04118
:10271000044600F06DFA05465CB1002684F834608A
:10272000022084F835002068016821F00101016071
:102730000DE00120BDE8F08100F05AFA401B0528A9
:1027400005D920206065032084F83500F2E7206871
:102750000068C007F0D121680A6820480240D4E927
:1027600001031843D4E903352B4318436369184325
:10277000A3691843E3691843236A18431043626A44
:10278000042A03D1D4E90B231A43104308602068BC
:10279000406920F00700656A29460543012704299E
:1027A0000DD1A06A0543E06A48B12046FEF710FF4C
:1027B00028B14020606584F835700120BAE72068B0
:1027C00045612046FEF7EEFE94F85C203F219140E3
:1027D0008160666584F835700020ABE73F8010F0BB
:1027E00070B5044600F004FA0546601C02D00448A7
:1027F0000078044400F0FCF9401BA042FAD370BDFD
:102800009C0000202DE9F04704460E46DFF88C803E
:1028100098F8180001280BD0012088F818004CF215
:1028200050394846FFF700F80246100003D02FE069
:102830000220BDE8F0874FF0FF3030602068184F6D
:10284000012801D0A5681CE0207C6168FEF75CFFD0
:102850004846FEF7E9FF0246386820F00400386079
:1028600014E0217C2846FEF7FDFE4846FEF7DCFF1B
:102870000246386820F0FA0038600AB1356005E099
:102880006D1CD4E902100844A842EAD8FEF712FFF2
:10289000002088F818001046CBE700008C2B0020A1
:1028A000103C02400348016841F0004101600020F3
:1028B00070470000103C02402DE9F047064689466B
:1028C00014461D46194F387E012808D0012038765D
:1028D0004CF250384046FEF7A7FF18B114E0022032
:1028E000BDE8F0879EB1012E16D0022E19D02246E7
:1028F0002B464846FEF72CFF4046FEF795FF0C4955
:102900000A6822F001020A6000213976E8E7E1B2A4
:102910004846FEF70DFFEFE7A1B24846FEF72CFF51
:10292000EAE721464846FEF739FFE5E78C2B002011
:10293000103C0240002007490A68002A09DA054ACB
:10294000054B0C3A1360054B13600968002900DA47
:1029500001207047103C024023016745AB89EFCD51
:1029600010B5234C10281AD020282AD0082836D099
:10297000012813D10EF01AF901280FD004F10C012F
:1029800020690DF01DFCE068002807D019494FF0C0
:1029900080500860BFF34F8FBFF36F8F10BD0920C9
:1029A00009F064FE607840F001006070A07840F0AB
:1029B0000100A07020790028F0D0BDE810400BF095
:1029C000B3B9082009F052FE207840F001002070D1
:1029D00020790028E2D0BDE810400BF0A5B90A200C
:1029E00009F044FEE07840F00100E07010BD000006
:1029F0000C03002004ED00E010B504490A6802420F
:102A000002D00860FFF7ACFF10BD0000143C01408D
:102A10002DE9F84F0022DFF89091DFF88C8109F161
:102A200008094FF0010E4FF00F0C09F1040A0EFADD
:102A300002F60B683340B34271D14C68022C01D0CE
:102A4000122C11D1D40800EB84073D6A5407E40E20
:102A50000CFA04FB25EA0B05D1F810B00BFA04FBC5
:102A60004BEA050BC7F820B0076854000325A540C2
:102A7000AF4391F804B00BF0030B0BFA04FB4BEAE5
:102A8000070BC0F800B04F68012F05D0022F03D00C
:102A9000112F01D0122F11D18768AF43D1F80CB09C
:102AA0000BFA04FB4BEA070BC0F808B04768B743C2
:102AB0000E79C6F3001696403E434660C668AE43A4
:102AC0008D68A5403543C5604C68E40065D5374C3A
:102AD000256845F480452560246804F4804400940A
:102AE000334C22F003052544D5F808789407260FC7
:102AF0000CFA06F4A7432F4CA04201D1002424E095
:102B00002D4CA04201D101241FE02C4CA04201D148
:102B100002241AE02A4CA04202D1032415E03CE032
:102B2000284CA04201D104240FE0274CA04201D13F
:102B300005240AE0254CA04201D1062405E0244CDE
:102B4000A04201D1072400E00824B4403C43C5F86A
:102B50000848D8F800409C434D68ED0300D51C435D
:102B6000C8F80040104D2D1D2C689C434E68B603DC
:102B700000D51C432C60D9F800409C434D68ED0201
:102B800000D51C43C9F80040DAF800409C434D686A
:102B9000AD0200D51C43CAF80040521C102AFFF4B5
:102BA00046AFBDE8F88F0000003C014044380240C9
:102BB00000300140000002400004024000080240D2
:102BC000000C0240001002400014024000180240B5
:102BD000001C02400069084201D00120704700201B
:102BE0007047002A01D081617047090481617047F4
:102BF00001488068704700009C00002070B50446C2
:102C0000002C04D094F83D00002510B106E001200E
:102C100070BD84F83C50204600F03EFB242084F830
:102C20003D002068016821F00101016001F04CFACB
:102C30004F4B6168994203D84E49884203D304E060
:102C40004D49884201D2012070BD4C49B0FBF1F1E1
:102C50002268566826F03F060E43566062689A4224
:102C600001D8491C07E04FF4967251434FF47A7231
:102C7000B1FBF2F1491C2268166A26F03F06314387
:102C800011626168994210D84900401EB0FBF1F210
:102C9000521CC2F30B02042A01D2042022E0B0FB32
:102CA000F1F0401CC0F30B001CE0A268F2B301EB92
:102CB000C10303EB0116431EB3FBF6F35B1C43F4A5
:102CC00080431B0549D092B301EBC10202EB011115
:102CD000401EB0FBF1F0401CC0F30B0040F48040FC
:102CE00040F400402168CA694CF6FF739A431043D0
:102CF000C861D4E9071001432068026822F0C002CD
:102D000011430160D4E9030101432068826848F25D
:102D1000FF339A4311438160D4E9051001432068D1
:102D2000C26822F0FF021143C16001E00EE016E02C
:102D30002068016841F0010101602564202084F8C9
:102D40003D00256384F83E50002070BD01EB410634
:102D5000431EB3FBF6F35B1CB3E70120C2E701EBB4
:102D60004101401EB0FBF1F0401CC0F30B00B7E77F
:102D7000A086010080841E0000093D0040420F0033
:102D80002DE9F84F04468A4615469946DDF8288015
:102D9000FFF72EFF064694F83D00202802D00220BF
:102DA000BDE8F88F1923012245492046009602F01C
:102DB0001DFD08B10220F3E794F83C00012807D07C
:102DC000012084F83C0020680168C90702D005E0B2
:102DD0000220E5E7016841F0010101602068016817
:102DE00021F400610160212084F83D00102084F866
:102DF0003E00002727646562A4F82A90608D208534
:102E00003048E062334642465146204602F02CFBF1
:102E100008B10120C4E720684169806900903EE064
:102E200032464146204602F0A8FD48B1206C0428F5
:102E300004D12068016841F4007101600120AFE70E
:102E4000606A216800780861656A6D1C6562608D42
:102E5000401E6085208D401E80B220852268516909
:102E6000C94349070BD450B128781061606A401CEF
:102E70006062608D401E6085208D401E2085324638
:102E80004146204602F08BFC48B1206C042804D156
:102E90002068016841F400710160012080E7208D05
:102EA0000028BDD11F3454F81F0C016841F4007193
:102EB00001602020A077E7776777002070E70000A7
:102EC000020010000000FFFF2DE9FF4F83B0044611
:102ED000DDE911988A469346109FFFF789FE054663
:102EE00094F83D00202803D0022007B0BDE8F08F01
:102EF0001923012294492046009502F077FC08B17D
:102F00000220F2E794F83C00012807D0012084F861
:102F10003C0020680168C90702D005E00220E4E710
:102F2000016841F0010101602068016821F400613D
:102F30000160222084F83D00402084F83E000026F5
:102F400026646762A4F82A90608D20857F48E0623D
:102F5000CDE900855A4651462046069B02F0D6FA36
:102F600008B10120C1E7208D48B1012810D0022806
:102F70001CD02068416980690290754FD8E02068B4
:102F8000416981690291016841F400710160F4E7CF
:102F90002068016821F480610160206841698169CD
:102FA0000291016841F400710160E6E72068016860
:102FB00021F4806101602068016841F400610160D2
:102FC0002068416980690290D7E703287ED80128EC
:102FD0000BD002281FD043460022394620460095D8
:102FE00002F004FCF0B301207FE72A464146204668
:102FF00002F08DFC08B1012077E720680069616A62
:103000000870606A401C6062208D401E2085608DC3
:10301000401E60858CE043460022394620460095DC
:1030200002F0E4FB08B101205FE72068016841F489
:103030000071016020680069616A0870606A401C64
:103040006062218D491E2185618D491E618521683F
:1030500009690170606A401C6062208D401E2085F5
:10306000608D00E002E0401E608561E0206801683C
:1030700021F48061016020680069616A0870606AFB
:10308000401C6062208D401E2085608D401E608542
:103090004346002239462046009502F0A7FB08B1BE
:1030A000012022E72068016841F400710160206876
:1030B0000069616A0870606A401C6062218D491E67
:1030C0002185618D491E6185216800E00BE0096959
:1030D0000170606A401C6062208D401E2085608DFA
:1030E000401E608524E02A464146204602F00FFC3F
:1030F00008B10120F9E620680069616A0870606A19
:10310000401C6062218D491E2185618D491E6185AB
:1031100021684A69D24352070AD409690170606A7A
:10312000401C6062208D401E2085608D401E6085A1
:10313000208D00287FF449AF20203C346070A670B9
:1031400026700020D1E60000020010000000FFFF02
:10315000040001002DE9FF4F83B00446DDE911981A
:103160008A469346109DFFF743FD064694F83D00BE
:10317000202803D0022007B0BDE8F08F19230122D8
:1031800043492046009602F031FB08B10220F2E7E5
:1031900094F83C00012807D0012084F83C00206806
:1031A0000168C90702D005E00220E4E7016841F0A8
:1031B000010101602068016821F4006101602120A3
:1031C00084F83D00402084F83E00002727646562B3
:1031D000A4F82A90608D20852E48E062CDE9008613
:1031E0005A4651462046069B02F022FA80B301203F
:1031F000C1E732464146204602F0BFFB48B1206C91
:10320000042804D12068016841F4007101600120A4
:10321000B1E7606A216800780861656A6D1C6562C3
:10322000208D401E80B22085618D491E61852368F6
:103230005969C94349070BD450B128781861606AAD
:10324000401C6062208D401E2085608D401E608580
:10325000208D0028CDD132464146204602F09FFA0B
:1032600048B1206C042804D12068016841F4007141
:10327000016001207FE71F3454F81F0C016841F4FE
:10328000007101602020A077E7776777002072E760
:10329000020010000000FFFF2DE9F04786B006464F
:1032A000142101A8FDF7AEF8534C524A30680025AE
:1032B0005149032710344FF012084FF001094FF025
:1032C000040A90421FD1086840F0020008600868B4
:1032D00000F00200009038020190CDF80880CDF88F
:1032E0000C900497CDF814A001A94448FFF790FB77
:1032F000206840F400102060206800F40010009066
:1033000006B0BDE8F0873E4A90423CD1086840F0E4
:1033100020000860086800F0200000900197CDF8B8
:103320000880CDF80C900497CDF814A001A9354879
:10333000FFF76EFB206840F480002060206800F4F6
:1033400080000090314C304820604FF06060606039
:103350004020A060E560000120616561A561E56134
:10336000C001206265622046FFF7D0F908B1FEF780
:1033700078F97463A6632548A8380068416841F469
:1033800000614160BCE7224A9042B9D1086840F030
:1033900004000860086800F004000090086840F02D
:1033A00001000860086800F00100009050150190CD
:1033B000CDF80880CDF80C900497CDF814A001A9A1
:1033C0001448FFF725FB4FF480700190CDF808807A
:1033D000CDF80C900497CDF814A001A90E48FFF782
:1033E00017FB206840F400002060206800F4000013
:1033F000009085E70054004030380240000402404D
:103400000058004000140240B8600240280D00201F
:10341000005C004000080240000002400248816851
:1034200002781144816070479C00002010B50B4861
:10343000016841F400710160016841F4806101603C
:10344000016841F480710160032000F075F80F20DD
:1034500000F006F800F026F8002010BD003C024005
:1034600070B504460D4D4FF47A712878B1FBF0F039
:103470000B490968B1FBF0F001F0D6FA08B1012060
:1034800070BD102C07D200222146501E00F034F8E7
:103490006C60002070BD012070BD00009C00002009
:1034A000A800002082B00C48016841F4804101600E
:1034B000006800F4804001900748001F016841F057
:1034C00080510160006800F08050019000220F21BF
:1034D000901E02B000F010B844380240002809DB0A
:1034E00000F01F02012191404009800000F1E0201E
:1034F000C0F8001170470000F0B40D460D4B1B687A
:10350000C3F30223C3F10704042C00D90424191DBA
:10351000072901D2002300E0DB1E012606FA04F190
:10352000491E294099409E40761E16403143F0BC0A
:1035300006F007BA0CED00E000F00701054A10683C
:103540004FF6FF03184040EA01200349084310608A
:10355000704700000CED00E00000FA0570470068BD
:1035600041620020704770B50368586A002907D08F
:103570009C6A00EB144400204FF48275491E0AE057
:1035800040EA024098620DE005EB80069E5904EB8C
:103590001644401CC0B28842F6D305EB810144EAD0
:1035A00002405850002070BDD0F8040405F067B9FF
:1035B000C1EBC10200EB8202D0F80404926C05F06A
:1035C000B0B8C1EBC10200EB8202D0F80404D2F81B
:1035D000082205F011B9D0F8040405F052B970B50D
:1035E00004460B0601F00F00C0EBC00104EB8101A3
:1035F0004FF001024FF0000502D53C314A7002E065
:1036000001F5FE714D70087094F8BC03012808D0D4
:1036100084F8BC23206805F013FD84F8BC53002017
:1036200070BD022070BD70B5044601F00F006268E5
:10363000904201D9012070BD0B0601F00F01C1EBD2
:10364000C10104EB81014FF001024FF0000502D5EA
:103650003C314A7002E001F5FE714D708D700870CA
:1036600094F8BC03012808D084F8BC23206805F036
:10367000BDFE84F8BC53002070BD022070BD01F077
:103680000F01C1EBC10100EB8100D0F814027047BB
:103690002DE9F04104460F0601F00F00C0EBC00118
:1036A00004EB81014FF001064FF0000502D53C31DB
:1036B0004E7002E001F5FE714D7008708A60CB70AB
:1036C0004A7802B1C880022B00D10D7194F8BC0376
:1036D000012809D084F8BC63206805F0F9FB28466E
:1036E00084F8BC53BDE8F0810220FBE770B50D46BD
:1036F00005F00F04C4EBC40100EB810101F5FE717C
:10370000CA604B6100238B614B700C700369012B05
:1037100000D10A612A0705D0027C006805F0BEFED0
:10372000002070BD027C006805F0ACFDF8E770B5C4
:1037300004460D46616805F00F00884201D901205A
:1037400070BD29064FF000064FF0010206D5C0EB10
:10375000C00104EB81013C314A7006E0C5EBC501B4
:1037600004EB810101F5FE714E708A70087094F8C7
:10377000BC03012807D084F8BC23206805F062FE52
:10378000280702D007E0022070BD217C04F5717289
:10379000206805F001FE84F8BC63002070BD70B5A0
:1037A0000D4605F00F04C4EBC40100EB81013C3170
:1037B000CA604B6100238B6101234B700C7003695D
:1037C000012B00D10A612A0705D0027C006805F0B0
:1037D00065FE002070BD027C006805F053FDF8E72F
:1037E0002DE9F84F04462568284605F089FF002892
:1037F0007ED1206805F0B0FF002879D0206805F060
:10380000ABFF800704D52068416901F002014161E6
:10381000206805F0A1FF010304F571704FF0010865
:103820004FF008094FF0100B009044D50026206897
:1038300005F071FF82463BE05FEACA7035D0F1B215
:10384000206805F081FF0746F80707D005EB461012
:10385000C0F8088B3146204603F03CFA380707D5FC
:103860003146204603F004FA05EB4610C0F8089BE9
:10387000F80603D505EB4610C0F808BBB8060CD512
:103880002069012804D120680121009A05F084FDF7
:1038900005EB46102021C0F8081BB80405D505EB40
:1038A00046104FF40051C0F8081B761C4FEA5A0A24
:1038B000BAF1000FC0D1206805F04EFF40035ED57D
:1038C000206805F021FF8246002655E05FEACA70B5
:1038D0004FD0F1B2206805F025FF0746F80728D041
:1038E00006F00F0108FA01F0D5F83418814300E022
:1038F0006BE1C5F8341805EB4610C0F8088920695B
:10390000012807D1C6EBC60004EB8000D0E91121E5
:1039100011448164F1B22046FFF74AFE2069012874
:1039200007D136B9206D20B920680121009A05F031
:1039300033FD380703D505EB4610C0F80899F806A3
:1039400003D505EB4610C0F808B9780604D505EB99
:1039500046104021C0F80819B80704D505EB4610F9
:103960000221C0F80819380603D53146204603F075
:1039700025FA761C4FEA5A0ABAF1000FA6D1206840
:1039800005F0EAFE002811DAD5F8040820F001015C
:10399000C5F8041894F8F40301282BD0204600F051
:1039A000EAF92068416901F000414161206805F0B1
:1039B000D3FE00050BD5D5F80808C00702D0204675
:1039C00000F01EFA2068416901F40061416120683D
:1039D00005F0C2FEC0045CD5D5F8040820F0010152
:1039E000C5F804181021206805F068FE00214FF684
:1039F0007F3219E0002084F8F40300212046FFF70D
:103A0000ADFDCEE705EB411000F510608260036864
:103A100023F400130360C0F80822D0F8003223F426
:103A20000013C0F80032491C60688842EAD8D5F813
:103A30001C0840F00111C5F81C18206B60B1D5F8C6
:103A4000840840F00B01C5F88418D5F8440840F00C
:103A50000B01C5F844180CE0D5F8140842F22B010C
:103A60000843C5F81408D5F8100840F00B01C5F854
:103A70001018D5F8000820F4FE61C5F80018217C64
:103A80002068009A05F088FC2068416901F48051A3
:103A90004161206805F060FE800415D5206805F0BE
:103AA00059FA206805F01CFEE06000F007FB0146B3
:103AB000227B206805F092FE204600F045F9206840
:103AC000416901F400514161206805F045FEC006DE
:103AD00035D52068816921F0100181612F6A07F0D6
:103AE0000F00C0EBC00004EB800606F5FE76C7F3BE
:103AF0004340022802D0062812D01BE047F6F0709F
:103B0000074217D0C7F30A1217462846F16805F096
:103B100027FEF0683844F060B0693844B06109E0CD
:103B200008222846009905F01BFEB069C7F30A1168
:103B30000844B0612068816941F01001816120680A
:103B400005F00AFE000707D5204600F018F92068A6
:103B5000416901F008014161206805F0FDFDC002E6
:103B600008D50021204600F032F82068416901F4B0
:103B700080114161206805F0EFFD800208D5002129
:103B8000204600F028F82068416901F400114161E5
:103B9000206805F0E1FD400007D52046FFF704FD51
:103BA0002068416901F080414161206805F0D4FD41
:103BB00040070AD520684568680702D52046FFF708
:103BC0000AFD2068416829434160BDE8F88FD0F8BC
:103BD000040404F0A5BED0F8040404F0A3BE2DE94B
:103BE000F0418AB00446002C05D0266894F8BD0345
:103BF000002520B108E001200AB0BDE8F08184F87A
:103C0000BC53204600F05EF8032084F8BD03F06B3F
:103C1000C00500D42561206805F02EFB04F11001D9
:103C2000282288466846FCF7D4FB94E80F0005F08C
:103C3000ABF9022718B184F8BD730120DCE700213D
:103C4000206805F09CFD002101260DE0C1EBC100BC
:103C500004EB80003C3046700170C180C570856007
:103C6000C5604561491CC9B260688842EED8002130
:103C70000DE0C1EBC10004EB800000F5FE70457063
:103C80000170C5708560C5604561491CC9B2606836
:103C90008842EED8282241466846FCF79AFB94E811
:103CA0000F0005F027FA18B184F8BD730120A3E7CF
:103CB00084F8385084F8BD63206805F00FFA0020BE
:103CC0009AE7000010B586B00446142101A8FCF75D
:103CD00099FB2068B0F1A04F2FD10021184802684D
:103CE00042F001020260006800F0010000904FF411
:103CF000C0500190022002900391032004900A20FA
:103D0000059001A90F48FEF783FE0D48001D0168CC
:103D100041F0800101600A481430016841F480419B
:103D20000160006800F480400090002205214320DB
:103D3000FFF7E2FB4320FFF7D1FB06B010BD000008
:103D4000303802400000024070B504460125E068AA
:103D500000280ED0022801D0FDF783FC2946D4F8B4
:103D6000040404F031FED4F80404BDE8704004F00B
:103D7000F0BD0025F2E7D0F8040404F013BED0F83B
:103D8000040404F015BE10B5044694F8BC030128E1
:103D90000BD0012084F8BC0384F83810206805F0AB
:103DA00006FD002084F8BC0310BD022010BDD0F831
:103DB000042400F57171104604F012BE10B50446DB
:103DC000206894F8BC13012906D0012184F8BC13A3
:103DD000A16A012902D008E0022010BDA1690129D1
:103DE00003D0816B41F480318163206805F06AF96A
:103DF000206805F04DFC002084F8BC0310BD0000D5
:103E000010B50446D4F8040404F029FE2068D0F864
:103E1000001E41F00101C0F8001E206A002804D0F5
:103E20000248016841F00601016010BD10ED00E09C
:103E30002DE9F84304464FF0010820684FF00007D1
:103E4000C10701D140072BD5DFF81891C9F8687078
:103E5000FEF7CEFE0646444D07E0FEF7C9FE801B86
:103E6000022802D90320BDE8F88328680001F4D4B1
:103E70006068217A800140EA01703B498431086022
:103E8000C9F86880FEF7B4FE064606E0FEF7B0FE0D
:103E9000801B022801D90320E5E728680001F5D539
:103EA0002078800753D530484030016841F0805178
:103EB0000160006800F0805000902C4D286840F4AC
:103EC00080702860FEF794FE064606E0FEF790FE3E
:103ED000801B022801D90320C5E72868C005F5D555
:103EE000214D7035286800F44070F8B1A18901F4C3
:103EF000407181421AD0286820F440701C49C1F8F2
:103F000000800F6028602868C0070FD0FEF770FEA1
:103F1000064641F2883706E0FEF76AFE801BB8428B
:103F200001D903209FE728688007F5D5E0680E498E
:103F3000C0F301220831032A0BD0086820F4F810DE
:103F400008602868A189C1F30B010843286000209C
:103F500089E70A68074B22F4F812184002430A6006
:103F6000EFE70000000047420038024000700040C8
:103F7000400E4742FFFCFF0F2DE9F04704460D4677
:103F8000002C13D0DFF82491D9F80000EFB200F034
:103F90000F00A8420CD289F80070D9F8000000F098
:103FA0000F00A84204D00120BDE8F0870120FBE704
:103FB00020683F4E810712D5400703D5306840F492
:103FC000E05030602078000703D5306840F460404E
:103FD00030603068A16820F0F0000843306020783D
:103FE000C00731D0324960680839012808D002285A
:103FF0000BD0032809D0096889070BD40120D3E727
:104000000968890306D40120CEE70968890101D433
:104010000120C9E7316821F0030101433160FEF757
:10402000E7FD804641F2883A07E0FEF7E1FDA0EBAC
:104030000800504501D90320B6E73068616800F0F8
:104040000C00B0EB810FF0D1D9F8000000F00F00A8
:10405000A84209D989F80070D9F8000000F00F00D3
:10406000A84201D001209FE72078400705D530689D
:10407000E16820F4E050084330602078000706D55E
:104080003068216920F4604040EAC100306000F0EF
:104090003BF83168074AC1F30311515CC840064937
:1040A00008600F20FFF7DCF900207DE7003C0240AC
:1040B00008380240AC100108A80000200148006840
:1040C00070470000A800002000B5FFF7F7FF044983
:1040D0000968044AC1F38221515CC84000BD000058
:1040E00008380240BC10010800B5FFF7E7FF04499B
:1040F0000968044AC1F34231515CC84000BD000068
:1041000008380240BC10010810B51748006810F0CC
:104110000C01164816D0164B042912D0082911D1CB
:10412000114C241F216801F03F02216849020AD581
:104130002068C0F38810A0FB03010023FCF718F9E6
:1041400009E0184610BD21680023C1F38811A1FBC6
:104150000001FCF70DF92168C1F30141491C490038
:10416000B0FBF1F010BD0000083802400024F4005C
:10417000001BB7002DE9F84F0446002C10D0207822
:10418000DC4DC00757D0DB4808300168C1F381011E
:1041900001290DD00068C0F38100022803D00EE091
:1041A0000120BDE8F88FD348001D0068400206D505
:1041B000286880033FD5606870BB0120F1E7606824
:1041C000B0F5803F10D0B0F5A02F12D0286820F4B1
:1041D00080302860286820F4802028606068E0B182
:1041E000FEF706FD064614E0286840F4803028609B
:1041F000F4E7286840F480202860286840F4803084
:104200002860EBE7FEF7F4FC801B642801D903204B
:10421000C7E728688003F5D50DE0FEF7E9FC064600
:1042200006E0FEF7E5FC801B642801D90320B8E70F
:1042300028688003F5D42078AF4F80074FF000083E
:1042400049D5AC480830016811F00C0F09D000685E
:10425000C0F38100022814D1A648001D0068400266
:104260000FD42868800704D5E068012801D0012018
:1042700097E72868216920F0F80040EAC10028602B
:1042800029E0E068B8B101203860FEF7B1FC0646CD
:1042900006E0FEF7ADFC801B022801D9032080E771
:1042A00028688007F5D52868216920F0F80040EAE1
:1042B000C10028600FE0C7F80080FEF799FC0646B1
:1042C00006E0FEF795FC801B022801D9032068E771
:1042D00028688007F5D42078000729D5DFF81492E4
:1042E0008648616909F1740989B101210160FEF70D
:1042F0007FFC064606E0FEF77BFC801B022801D906
:1043000003204EE7D9F800008007F4D510E0C0F88C
:104310000080FEF76DFC064606E0FEF769FC801B98
:10432000022801D903203CE7D9F800008007F4D423
:104330002078400772D50026DFF8B8A10AF1400ABC
:10434000DAF80000C0000BD4DAF8000040F080502A
:10435000CAF80000DAF8000000F080500090012652
:10436000DFF89CB1DBF80000C00515D4DBF80000D5
:1043700040F48070CBF80000FEF73AFC814607E07D
:10438000FEF736FCA0EB0900022801D9032008E75C
:10439000DBF80000C005F3D5DFF858B1A0680BF1D9
:1043A000700B012813D0052818D0DBF8000020F08E
:1043B0000100CBF80000DBF8000020F00400CBF88F
:1043C0000000A06830B3FEF713FC81461DE0DBF867
:1043D000000040F00100CBF80000F2E7DBF800003D
:1043E00040F00400CBF80000DBF8000040F00100D2
:1043F000CBF80000E5E7FEF7FBFBA0EB090141F27B
:104400008830814201D90320CBE6DBF80000800729
:10441000F1D512E0FEF7ECFB81460AE015E0FEF76D
:10442000E7FBA0EB090141F28830814201D903206A
:10443000B7E6DBF800008007F1D4012E05D1DAF8E9
:10444000000020F08050CAF80000A069C0B32949DC
:1044500008310968C1F38101022949D0022805D039
:10446000C7F86080FEF7C4FB04463CE0C7F86080F4
:10447000FEF7BEFB064606E0FEF7BAFB801B0228ED
:1044800001D903208DE628688001F5D4D4E907011D
:104490000843616AA26A4FF0FF33890103EB5202BD
:1044A00041EA0241084394F82C1040EA01611148A6
:1044B000001D016001203866FEF79AFB044607E004
:1044C00014E0FEF795FB001B022801D9032068E6E3
:1044D00028688001F5D509E0FEF78AFB001B022859
:1044E00001D903205DE628688001F5D4002058E654
:1044F000012056E60038024000004742800E474245
:104500000070004070B50446002C03D0607900258F
:1045100010B105E0012070BD2571204600F00CF8B7
:10452000022060712068016841F0040101600120EF
:104530006071A560002070BD08B50068064988421A
:1045400008D10648016841F040010160006800F0B0
:104550004000009008BD00000008065034380240BA
:1045600070B50446002C02D0607F10B106E0012037
:1045700070BD00202077204600F04EF802206077C2
:104580002168CA204862216853204862204602F010
:10459000D7FEFF25042620B12068456266770120FA
:1045A00070BD206881681B4A114081602068816865
:1045B00062681143D4E904231A43114381602168DE
:1045C000E068086120680169228941EA02410161CD
:1045D0002068C16821F08001C16020688068800681
:1045E00008D4204600F024F820B1206845626677A0
:1045F000012070BD2068016C21F4802101642068D5
:10460000016CA26911430164206845620120607752
:10461000002070BDBFFF8FFF00680349884202D1B0
:104620000249012008607047002800403C0E4742C4
:1046300070B505462868C16821F0A001C160FEF789
:10464000D7FA04464FF47A7606E0FEF7D1FA001B5B
:10465000B04201D9032070BD2868C0688006F4D537
:10466000002070BD70B50446002C05D00025A56261
:1046700094F8510010B106E0012070BD84F850504C
:10468000204600F031F8022084F8510020680168CB
:1046900021F040010160D4E901010843D4E903128B
:1046A0001143084361690843218B01F400710843F9
:1046B000E1690843216A0843A16A08432168086048
:1046C000A069042101EA1040616A0843216848603A
:1046D0002068C16921F40061C1616565012084F829
:1046E0005100002070BD00002DE9F04387B0054661
:1046F000142102A8FBF786FE4B4B29684B48022485
:1047000001274B4A00264FF003084FF00509994254
:1047100067D1464914310B6843F480530B60096834
:1047200001F480510191016841F0020101600168CA
:1047300001F002010191016841F00101016000688E
:1047400000F0010001901820029003940497CDF826
:104750001480CDF8189002A91046FEF759F9802070
:10476000029003940497CDF81480CDF8189002A914
:104770003048FEF74DF9314C2F4820604FF0C068AB
:10478000C4F80480A660E660071527616661A6612B
:10479000E6614FF44030206266622046FDF7B6FFC6
:1047A00008B1FCF75EFFEC64A5632348234C183086
:1047B00060342060C4F804804020A060E660276177
:1047C0006661A661E661C002206266622046FDF76E
:1047D0009DFF08B1FCF745FFAC64A56307B0BDE8D9
:1047E000F083174B9942F9D1104910310B6843F40B
:1047F00080430B60096801F480410191016841F038
:1048000002010160006800F0020001904FF4604076
:10481000029003940497CDF81480CDF8189002A963
:104820001046FEF7F5F8D9E7003001403038024075
:10483000000402400000024040640240680E002074
:10484000003800402DE9F84F04460A9E8A469346F8
:104850001F4601254FF0000894F8500001280ED0A3
:10486000012084F85000FEF7C3F9814694F8510006
:10487000616801280DD0B1F5827F07D102E00220E6
:10488000BDE8F88FA16809B9042802D04FF00208EA
:10489000C3E0BAF1000F28D0BBF1000F25D03800DB
:1048A00023D094F85100042802D0052084F8510048
:1048B00000206065C4F838B0E787A787C4F830A047
:1048C000E786A7862064606420680168490603D4EF
:1048D000016841F040010160E068B0F5006F07D069
:1048E0006068E8B3012F48D07DE04FF0010894E004
:1048F000606808B1012F39D1206B21680088C86039
:10490000206B801C2063E08E401EE0862EE0206835
:10491000816889070DD5E18E59B1012D09D1216B2F
:104920000988C160206B801C2063E08E401EE086F9
:10493000002520688168C9070BD0E18F49B1C068A4
:10494000A16B0880A06B801CA063E08F401EE087F5
:104950000125FEF74DF9A0EB0900B04206D300E0B7
:104960000BE0701C02D04FF0030856E0E08E0028E8
:10497000CDD1E08F0028CAD13BE0206B21680078C0
:104980000873206B401C2063E08E401EE0862AE006
:104990002068816889070DD5E18E59B1012D09D1B3
:1049A000216B09780173206B401C2063E08E401E50
:1049B000E086002520688168C9070BD0E18F49B1E6
:1049C000C068A16B0870A06B401CA063E08F401E04
:1049D000E0870125FEF70CF9A0EB0900B04201D3F6
:1049E000701C11D186B1E08E0028D1D1E08F002853
:1049F000CED14A463146204602F0B6FD38B14FF0DE
:104A000001082020606508E04FF0030805E0A06879
:104A100018B92068C1688068009001205034607027
:104A20000020207040462BE710B5401EB0F1807F7B
:104A300001D3012010BD4FF0E02460610F21601709
:104A400004F07FFF0020A06107202061002010BD3E
:104A500010B590F83C20012A22D0012280F83C2099
:104A6000CA6800238C6822F4407222434C6822F406
:104A7000806222430C6822F4006222430C6922F413
:104A8000805222434C6922F400522243C96922F425
:104A900080420A4301684A6480F83C30002010BD1F
:104AA000022010BD70B590F83C20012A19D00126D3
:104AB00000F83C6F0222427050F83C2C5468936816
:104AC00024F070050C682C4323F0800349681943D7
:104AD000546050F83C2C9160467000210170002019
:104AE00070BD022070BD10B50446002C03D094F8B0
:104AF0003D0010B107E0012010BD002084F83C000B
:104B0000204600F00DF8022084F83D00211D2068A9
:104B100002F02CFE012084F83D00002010BD0000B2
:104B200008B500682549264A884208D1106840F037
:104B300001001060106800F00100009008BD2049DD
:104B4000204B091F984208D1086840F00200086015
:104B5000086800F00200009008BD1B4B984208D185
:104B6000086840F004000860086800F00400009045
:104B700008BD164B984208D1086840F0080008604C
:104B8000086800F00800009008BD1149884208D16B
:104B9000106840F002001060106800F00200009001
:104BA00008BD0C498842FBD1106840F40030106009
:104BB000106800F40030009008BD000000000140C3
:104BC000443802400004004000080040000C00404F
:104BD0000004014000440140022180F83D100168BA
:104BE0008A6802F00702062A03D00A6842F001022E
:104BF0000A60012180F83D100020704770B504461E
:104C000094F83C00012817D0012584F83C5002207C
:104C100084F83D002068826822F0770222F47F4207
:104C200082600868502831D00DDC20284DD005DC8A
:104C3000B0B310284ED148E0022070BD302844D0D7
:104C4000402847D137E060282BD0702806D0B0F537
:104C5000805F3FD0B0F5005F3CD10BE0CB68D1E97D
:104C60000121206802F0F5FD2068816841F077019C
:104C700081602FE0CB68D1E90121206802F0E9FDD5
:104C80002068816841F48041816023E0CA684968F6
:104C9000206802F0C1FE5021206802F0E4FD19E016
:104CA00013E0CA684968206802F0C7FE60212068E6
:104CB00002F0D9FD0EE0CA684968206802F0ACFE37
:104CC0004021206802F0CFFD04E022680146104632
:104CD00002F0C9FD3C3465700020207070BD0000FA
:104CE0002DE9F04186B00446142101A8FBF78AFBA8
:104CF00075482168754A02240125814228D110682F
:104D000040F010001060106800F0100000904FF4A8
:104D1000D4400190029403950494059501A96C4830
:104D2000FDF776FE6B48FFF757FF0021694800F05A
:104D300073F90421674800F06FF90821654800F015
:104D40006BF90C21634800F067F906B0BDE8F0810B
:104D50006148DFF8888181421BD1106840F004006F
:104D60001060106800F00400009088150190029413
:104D700003950494059401A94046FDF749FE554862
:104D80004030FFF729FF53480821403000F044F934
:104D9000DBE75348032681421BD1106840F008002E
:104DA0001060106800F00800009008140190029450
:104DB00003950496059401A94A48FDF729FE454844
:104DC0008030FFF709FF43480821803000F024F9C4
:104DD000BBE74548814226D1106840F08000106052
:104DE000106800F0800000904FF4E05001900294B1
:104DF00003950494059401A93C48FDF709FE354844
:104E0000C030FFF7E9FE33480021C03000F004F95C
:104E100030480421C03000F0FFF82E480821C0308F
:104E200000F0FAF891E73248402781422DD110680E
:104E300040F480701060106800F48070009010687A
:104E400040F004001060106800F00400009001972A
:104E5000029403950494059601A92648FDF7D8FD10
:104E60000197029403950494059601A94046FDF725
:104E7000CFFD2148FFF7B0FE00211F4800F0CCF81D
:104E800004211D4800F0C8F85FE71C4881429FD10B
:104E9000106840F020001060106800F020000090C2
:104EA0000197029403950494059601A91448FDF70F
:104EB000AFFD11484030FFF78FFE0F480021403012
:104EC00000F0AAF841E7000000000140303802403D
:104ED00000100240280F002000040040000802409B
:104EE00000080040000C0240000C0040001C024082
:104EF000000401400020024028100020004401402E
:104F00000014024070B504460D4694F83C00012898
:104F10000DD0012684F83C60022084F83D0042B1A7
:104F2000042A1AD0082A2DD00C2A53D13EE00220A0
:104F300070BD2946206802F09FFC2068816941F01D
:104F4000080181612068816921F004018161206884
:104F500081692A69114381613CE02946206802F099
:104F6000BFFC2068816941F400618161206881692A
:104F700021F480618161206881692A6941EA022106
:104F8000816127E02946206802F0E4FC2068C169BD
:104F900041F00801C1612068C16921F00401C161CB
:104FA0002068C1692A691143C16113E0294620685C
:104FB00002F008FD2068C16941F40061C161206808
:104FC000C16921F48061C1612068C1692A6941EA2F
:104FD0000221C1613C3466700020207070BD10B5A4
:104FE0000446002C03D094F83D0010B107E00120E6
:104FF00010BD002084F83C00204600F00CF8022090
:1050000084F83D00211D206802F0B0FB012084F8E7
:105010003D00002010BD704710B5044601222068F5
:1050200002F00AFC0B482168814202D00A48814202
:1050300003D1486C40F4004048642068816801F066
:105040000701062903D0016841F001010160002039
:1050500010BD0000000001400004014070B504468E
:10506000002C04D094F83900002510B106E001208E
:1050700070BD84F83850204600F022F8242084F8CF
:1050800039002068C16821F40051C160204602F057
:10509000E7FC2068016921F49041016120684169C1
:1050A00021F02A0141612068C16841F40051C160CA
:1050B000E563202084F8390084F83A00002070BDB0
:1050C0002DE9F04F87B00446142102A8FBF79AF9A6
:1050D0008449DFF80CC214392368824A022707206A
:1050E00000250E154FF001084FF003094FF0006A3C
:1050F000634553D1136843F010031360126802F044
:10510000100201920A6842F002020A600A6802F084
:10511000020201920A6842F001020A60096801F085
:1051200001010191802102910397CDF81080CDF803
:1051300014908346069002A96B48FDF769FC701035
:1051400002900397CDF81080CDF81490CDF818B0E8
:1051500002A96648FDF75CFC002204212520FEF729
:10516000CBF92520FEF7BAF9624F61483860C7F8DD
:1051700004A04020B860FD603E617D61BD61FD61BD
:10518000800238627D623846FDF7C0FA08B1FCF74C
:1051900068FA2763BC6307B0BDE8F08FDFF858C139
:1051A0004FF4003B63453ED14E4A121F136843F44F
:1051B00080231360126802F4802201920A6842F090
:1051C00004020A60096801F0040101914FF4406192
:1051D00002910397CDF81080CDF81490069002A9A3
:1051E0004648FDF715FC434F454860373860C7F81F
:1051F00004A0BD60FD603E617D61BD61FD61C7F8D9
:1052000020B07D623846FDF781FA08B1FCF729FA33
:105210006763BC63002204212720FEF76DF9272075
:10522000FEF75CF9B7E737488342B4D1106840F025
:1052300020001060106800F020000190086840F025
:1052400040000860086800F0400001904FF484407E
:1052500002900397CDF81080CDF8149008200690A6
:1052600002A92948FDF7D4FB2148224F9038C037C6
:1052700038604FF02068C7F80480BD60FD603E6173
:105280007D61BD61FD61C7F820B07D623846FDF7E4
:105290003DFA08B1FCF7E5F96763BC6314481B4F9E
:1052A00018383860C7F804804020B860FD603E615F
:1052B0007D61BD61FD61800238627D623846FDF727
:1052C00025FA08B1FCF7CDF92763BC63002205215C
:1052D0004720FEF711F94720FEF700F95BE70000D1
:1052E0000010014044380240000402400000024027
:1052F000B8640240681100200048004000080240E5
:10530000286002400014014000180240881200206A
:10531000FEE7000030B50C4615460146054800F092
:10532000E3F9002805D129462046BDE8304000F0C9
:1053300003B830BD800C0020F0B51C4C626B1268C5
:10534000136823F00103136003E0136823F00103E3
:105350001360636B1A681568ED07F6D1656B144F1F
:105360002E684FF00065BE4203D9114A4C3A1560D1
:105370000FE0104EB24203D90D4A503A156008E0D2
:105380000C4F0C4E603FB83EBA4201D9F56000E0C8
:10539000B5601A68D060606B00684160606B00683F
:1053A000016841F001010160F0BD0000800C0020A7
:1053B00058640240B860024010B51B49486B006851
:1053C000026822F00102026003E0026822F001029A
:1053D0000260486B00680268D207F6D14A6B134836
:1053E00012689060496B124B4FF000620868984257
:1053F00003D90F484C3802600FE00E4B984203D996
:105400000B485038026008E00A4C0A4B603CB83B3D
:10541000A04201D9DA6000E09A600868016841F0B2
:105420001001016010BD0000800C002010580040E9
:1054300058640240B860024001684A69D24352058C
:105440000FD46FF480624A61002140F8301F20229F
:1054500042738173026942F0040202610173012008
:105460007047002070470000F8B504460D46174607
:105470001E46E06A082808D0012806D010F5803FB3
:1054800003D0206B122806D00AE02068016841F49E
:105490008071016004E02068016841F4807101605E
:1054A0003B4600224FF001112046009600F09EF985
:1054B00008B10120F8BD2069B0F5804F0FD005F488
:1054C0004070F02141EAD0102168086133463A4625
:1054D0000D49204600F0C7F930B10120F8BD216820
:1054E00005F0FE00086102E02168E8B208610649A3
:1054F00033463A46891F204600F0B5F908B101202D
:10550000F8BD0020F8BD0000080001002DE9F84FAB
:105510000446DDE90AB60F4690461D46206801683C
:1055200041F4806101602068016841F4807101608C
:105530004FF001195B46002249462046009600F0D4
:1055400055F910B10120BDE8F88F216807F0FE0081
:105550000861DFF8D8A033465A465146204600F08D
:1055600082F908B10120EEE7206841698069009066
:1055700032465946204600F000FA48B1206C042813
:1055800004D12068016841F4007101600120DAE76C
:10559000284608F0FF0501280DD021684FEA1820A1
:1055A000086132465946204600F0E7F968B1206CA0
:1055B000042803D007E02068056108E0206801683E
:1055C00041F4007101600120BDE7206805613246A9
:1055D0005946204600F0D1F948B1206C042804D186
:1055E0002068016841F4007101600120ABE7206888
:1055F000016841F4807101605B4600224946204603
:10560000009600F0F3F808B101209CE72168F8B299
:1056100040F00100086133465A465146204600F0EA
:1056200022F908B101208EE700208CE7020001007A
:105630002DE9F8430446DDE908970D4616469846DD
:105640002068016841F4807101604B4600224FF0F0
:1056500001112046009700F0C9F810B10120BDE803
:10566000F883216805F0FE0008613B464A461D4963
:10567000204600F0F8F808B10120F0E72068416901
:10568000806900903A464946204600F076F948B1D4
:10569000206C042804D12068016841F40071016085
:1056A0000120DCE7F5B2B8F1010F0CD02168300A17
:1056B00008613A464946204600F05FF968B1206C1F
:1056C000042803D007E02068056108E0206801682D
:1056D00041F4007101600120C1E7206805610020EC
:1056E000BDE700000200010018B50023026814683D
:1056F000E40703D1146844F001041460026809E06F
:105700005B1C9BB2642B05D9106840F400701060DC
:10571000022018BD9469A407F2D4136823F400632F
:1057200013600268136843F48073136000220368F7
:1057300009E0521C92B2642A05D9186840F400703E
:105740001860012018BD5C69E407F2D001F0FE0189
:10575000196100214FF4FA72006809E0491C89B20E
:10576000914205D9016841F400710160012018BD22
:1057700043699B07F2D5416981690091002109E0E5
:10578000491C89B2914205D9016841F40071016058
:10579000012018BD43691B06F2D5002018BD70B565
:1057A00004460D4616460DE02046FFF745FE08B1BB
:1057B000012070BD681C05D0FDF71AFA801BA842B5
:1057C00007D835B120684069C0434007ECD40020B9
:1057D00070BD002044F8300F20216173A07321694F
:1057E00041F0200121612073012070BD2DE9F047B7
:1057F0000446DDF820900E4690461D46C6F3074746
:1058000008E0681C06D0FDF7F3F9A0EB0900A842F8
:105810000FD875B1012F19D02068806926EA0000E1
:105820000004000C1DD000204045EAD00020BDE857
:10583000F087002044F8300F20216173A0732169A4
:1058400041F02001216120730120F0E720684069C8
:1058500026EA00000004000C01D00020E4E701204B
:10586000E2E70120E0E72DE9F04704460E46154641
:1058700098464FF000094FF0200AC6F3074725E08D
:1058800020684069C043400517D42068016841F48E
:105890000071016021686FF480604861C4F8309045
:1058A00084F83DA084F83E90206C40F00400206411
:1058B00084F83C900120BDE8F087681C06D0FDF715
:1058C00097F9A0EB0800A8420BD855B1012F16D0CC
:1058D0002068806926EA00000004000CD0D1002076
:1058E000E9E7C4F8309084F83DA084F83E90206C3D
:1058F00040F02000206484F83C900120DBE7206821
:10590000406926EA00000004000CE8D0B8E72DE961
:10591000F04104460D46164600274FF0200819E0D6
:105920004069C043C0060FD421686FF01000486181
:10593000276384F83D8084F83E70206C206484F8EE
:105940003C700120BDE8F081FDF752F9801BA842B0
:1059500007D835B120684169C9434906E0D4002021
:10596000F0E744F8307F84F80D80A773206940F099
:105970002000206127730120E4E770B504460D463E
:1059800016460DE02046FFF757FD08B1012070BD17
:10599000681C05D0FDF72CF9801BA84207D835B14B
:1059A00020684069C0430006ECD4002070BD002090
:1059B00044F8300F20216173A073216941F0200168
:1059C00021612073012070BD30B503460C4610885C
:1059D000154D00280DD105F10C0090ED000A85ED64
:1059E000000A90ED010A85ED010A90ED020A85EDAD
:1059F000020A0D490C48703908F0FAF895ED000AD2
:105A000084ED000A95ED010A84ED010A95ED020A84
:105A100084ED020AB7EE000A83ED000A83ED010A65
:105A200083ED020A30BD0000A49600200A4891EDE3
:105A3000000A80ED000AD1ED010AC0ED010A91EDE6
:105A4000021A80ED021A0C3880ED000AC0ED010A3E
:105A500080ED021A70470000B09600200EB50720B6
:105A600008F060FD02E0642008F05CFDFBF746FBF7
:105A70000028F8D102E0642008F054FD08F0C2FAD2
:105A80000028F8D17E4A101DCDE90102A2F11005CF
:105A9000291DFBF74BFB2B46A3F1340205F1480A05
:105AA000A2F10C01A1F10C00CDF800A008F0C6F89D
:105AB000DFED740A9FED740A744A002105F1640059
:105AC00001F09AFAA5F13402A2F10C0101F11800DB
:105AD000FBF780F8A5F14008A5F1580698ED000AFB
